:020000040800F2
:1000000000000120D91E0008196C0008256C0008AA
:100010002D6C0008356C00083D6C000800000000E5
:10002000000000000000000000000000516C00080B
:10003000456C0008000000005D6C000815350008E4
:10004000696C0008756C0008816C00088D6C0008F4
:10005000996C0008A56C00087D5F0008DD5F000852
:100060003D6000084960000855600008B16C000858
:10007000BD6C0008C96C0008D56C0008E16C000874
:10008000ED6C0008F96C0008056D0008116D0008A2
:100090001D6D0008296D0008356D000861600008BD
:1000A000416D00084D6D0008596D0008656D000830
:1000B000193B0008A53C0008E96D0008156E000812
:1000C000C574000819750008257500083175000809
:1000D0003D750008CD490008857F0008B180000803
:1000E000B161000849750008557500086175000880
:1000F0006D75000879750008857500089175000810
:100100009D750008A9750008B5750008C17500083F
:10011000CD750008D9750008E5750008F17500086F
:10012000FD7500080976000815760008217600089C
:1001300010F0030F034670B4C9B210D002B30378B5
:100140008B421ED0013A013005E0CAB110F8014BD4
:10015000013A8C4217D010F0030F0346F5D1032A61
:1001600013D86AB1187888420DD0013A5C1C04E0BB
:1001700014F8015B013A8D4203D02046002AF7D1E2
:10018000104670BC70471846FBE741EA012646EA74
:100190000646184653F8044B86EA0404A4F10135D8
:1001A00025EA040414F0803F03D1043A1846032AD8
:1001B000EFD80346D5E700BF032A2DE9F00109D89F
:1001C0002AB10023CC5CC45401339342FAD1BDE878
:1001D000F00170470B468218014603E02478013392
:1001E00001F8014B11F0030F1C46F7D113F0030582
:1001F0005DD06E42C5F1040CED009B594FEACC0C6A
:1002000008E00434A7593B4607FA0CF748EA070709
:1002100041F8047B571A23FA05F8032FF1DC03E0B9
:1002200014F8013B01F8013B8A42F9D8CFE753F8B3
:10023000404C41F8404C53F83C4C41F83C4C53F88E
:10024000384C41F8384C53F8344C41F8344C53F89E
:10025000304C41F8304C53F82C4C41F82C4C53F8AE
:10026000284C41F8284C53F8244C41F8244C53F8BE
:10027000204C41F8204C53F81C4C41F81C4C53F8CE
:10028000184C41F8184C53F8144C41F8144C53F8DE
:10029000104C41F8104C53F80C4C41F80C4C53F8EE
:1002A000084C41F8084C53F8044C41F8044C561AD9
:1002B0001D460C46403340313F2EB8DC2B460FE044
:1002C00053F8101C44F8101C53F80C1C44F80C1C78
:1002D00053F8081C44F8081C53F8041C44F8041C88
:1002E000161B1D4610330F2E214604F11004E7DCC7
:1002F0002B4602E0246841F8044B551A1C46032D96
:1003000003F10403F6DC8FE7032AC9B270B408D8FE
:100310002AB10346121803F8011B9342FBD170BCAB
:1003200070478218044601E004F8011B14F0030F23
:10033000FAD14FF0013303FB01F31FE044F8403CD6
:1003400044F83C3C44F8383C44F8343C44F8303CF5
:1003500044F82C3C44F8283C44F8243C44F8203C25
:1003600044F81C3C44F8183C44F8143C44F8103C55
:1003700044F80C3C44F8083C44F8043C161B254661
:1003800040343F2EDADC2C4607E044F8103C44F8B9
:100390000C3C44F8083C44F8043C161B2546103439
:1003A0000F2EF2DC01E045F8043B541B032CFADC71
:1003B00001E005F8011B9542FBD3B0E7024640423D
:1003C00040EA020221F0004141EAD272C2F1FE424B
:1003D00002F57002504240EA0202D0170130704725
:1003E00002464042104321F0004141EAD070C0F182
:1003F000FE4000F57000C00F704700BF20F0030101
:1004000010F00300C0F1000051F8043B00F1040CAF
:100410004FEACC0C6FF000021CBF22FA0CF213431F
:100420004FF0010C4CEA0C2C4CEA0C4CA3EB0C02E8
:1004300022EA030212EACC1204BF51F8043B043052
:10044000F4D013F0FF0F1FBF013013F47F4F0130C2
:1004500013F47F0F18BF0130704700BF0000000089
:100460004A1E08BF7047C0F02481884240F21681BE
:10047000114200F01781B0FA80F3B1FA81F2A2EBD9
:100480000303C3F11F0304A202EB03134FF00002A6
:100490009F4600BFAFF30080B0EBC17F00BF42EBCF
:1004A000020228BFA0EBC170B0EB817F00BF42EB1E
:1004B000020228BFA0EB8170B0EB417F00BF42EB8E
:1004C000020228BFA0EB4170B0EB017F00BF42EBFE
:1004D000020228BFA0EB0170B0EBC16F00BF42EB7E
:1004E000020228BFA0EBC160B0EB816F00BF42EBFE
:1004F000020228BFA0EB8160B0EB416F00BF42EB6E
:10050000020228BFA0EB4160B0EB016F00BF42EBDD
:10051000020228BFA0EB0160B0EBC15F00BF42EB5D
:10052000020228BFA0EBC150B0EB815F00BF42EBDD
:10053000020228BFA0EB8150B0EB415F00BF42EB4D
:10054000020228BFA0EB4150B0EB015F00BF42EBBD
:10055000020228BFA0EB0150B0EBC14F00BF42EB3D
:10056000020228BFA0EBC140B0EB814F00BF42EBBD
:10057000020228BFA0EB8140B0EB414F00BF42EB2D
:10058000020228BFA0EB4140B0EB014F00BF42EB9D
:10059000020228BFA0EB0140B0EBC13F00BF42EB1D
:1005A000020228BFA0EBC130B0EB813F00BF42EB9D
:1005B000020228BFA0EB8130B0EB413F00BF42EB0D
:1005C000020228BFA0EB4130B0EB013F00BF42EB7D
:1005D000020228BFA0EB0130B0EBC12F00BF42EBFD
:1005E000020228BFA0EBC120B0EB812F00BF42EB7D
:1005F000020228BFA0EB8120B0EB412F00BF42EBED
:10060000020228BFA0EB4120B0EB012F00BF42EB5C
:10061000020228BFA0EB0120B0EBC11F00BF42EBDC
:10062000020228BFA0EBC110B0EB811F00BF42EB5C
:10063000020228BFA0EB8110B0EB411F00BF42EBCC
:10064000020228BFA0EB4110B0EB011F00BF42EB3C
:10065000020228BFA0EB0110B0EBC10F00BF42EBBC
:10066000020228BFA0EBC100B0EB810F00BF42EB3C
:10067000020228BFA0EB8100B0EB410F00BF42EBAC
:10068000020228BFA0EB4100B0EB010F00BF42EB1C
:10069000020228BFA0EB0100104670470CBF0120EA
:1006A00000207047B1FA81F2C2F11F0220FA02F075
:1006B000704708B14FF0FF3000F066B90029F8D05C
:1006C0002DE90340FFF7CCFEBDE8064002FB00F336
:1006D000A1EB0301704700BF002900F03E8180EAD2
:1006E000010C48BF49424A1E00F01F81030048BF69
:1006F00043428B4240F21E81114200F02381B3FA43
:1007000083F2B1FA81F0A0EB0202C2F11F0204A051
:1007100000EB02124FF00000974600BFAFF30080DD
:10072000B3EBC17F00BF40EB000028BFA3EBC17358
:10073000B3EB817F00BF40EB000028BFA3EB8173C8
:10074000B3EB417F00BF40EB000028BFA3EB417338
:10075000B3EB017F00BF40EB000028BFA3EB0173A8
:10076000B3EBC16F00BF40EB000028BFA3EBC16338
:10077000B3EB816F00BF40EB000028BFA3EB8163A8
:10078000B3EB416F00BF40EB000028BFA3EB416318
:10079000B3EB016F00BF40EB000028BFA3EB016388
:1007A000B3EBC15F00BF40EB000028BFA3EBC15318
:1007B000B3EB815F00BF40EB000028BFA3EB815388
:1007C000B3EB415F00BF40EB000028BFA3EB4153F8
:1007D000B3EB015F00BF40EB000028BFA3EB015368
:1007E000B3EBC14F00BF40EB000028BFA3EBC143F8
:1007F000B3EB814F00BF40EB000028BFA3EB814368
:10080000B3EB414F00BF40EB000028BFA3EB4143D7
:10081000B3EB014F00BF40EB000028BFA3EB014347
:10082000B3EBC13F00BF40EB000028BFA3EBC133D7
:10083000B3EB813F00BF40EB000028BFA3EB813347
:10084000B3EB413F00BF40EB000028BFA3EB4133B7
:10085000B3EB013F00BF40EB000028BFA3EB013327
:10086000B3EBC12F00BF40EB000028BFA3EBC123B7
:10087000B3EB812F00BF40EB000028BFA3EB812327
:10088000B3EB412F00BF40EB000028BFA3EB412397
:10089000B3EB012F00BF40EB000028BFA3EB012307
:1008A000B3EBC11F00BF40EB000028BFA3EBC11397
:1008B000B3EB811F00BF40EB000028BFA3EB811307
:1008C000B3EB411F00BF40EB000028BFA3EB411377
:1008D000B3EB011F00BF40EB000028BFA3EB0113E7
:1008E000B3EBC10F00BF40EB000028BFA3EBC10377
:1008F000B3EB810F00BF40EB000028BFA3EB8103E7
:10090000B3EB410F00BF40EB000028BFA3EB410356
:10091000B3EB010F00BF40EB000028BFA3EB0103C6
:10092000BCF1000F48BF404270479CEA000F48BF2F
:100930004042704738BF002004BF4FEAEC7040F0DF
:1009400001007047B1FA81F2C2F11F02BCF1000F41
:1009500023FA02F048BF404270470028C8BF6FF03A
:100960000040B8BF4FF0004000F00EB80029F4D0AE
:100970002DE90340FFF7B3FEBDE8064002FB00F39C
:10098000A1EB0301704700BF704700BF81F0004139
:1009900002E000BF83F0004330B54FEA41044FEA64
:1009A000430594EA050F08BF90EA020F1FBF54EAFF
:1009B000000C55EA020C7FEA645C7FEA655C00F09B
:1009C000E2804FEA5454D4EB5555B8BF6D420CDD6C
:1009D0002C4480EA020281EA030382EA000083EAEF
:1009E000010180EA020281EA0303362D88BF30BD8F
:1009F00011F0004F4FEA01314FF4801C4CEA1131E5
:100A000002D0404261EB410113F0004F4FEA033343
:100A10004CEA133302D0524263EB430394EA050FCE
:100A200000F0A780A4F10104D5F1200E0DDB02FA3D
:100A30000EFC22FA05F2801841F1000103FA0EF2D1
:100A4000801843FA05F359410EE0A5F120050EF197
:100A5000200E012A03FA0EFC28BF4CF0020C43FAC8
:100A600005F3C01851EBE37101F0004507D54FF0D5
:100A7000000EDCF1000C7EEB00006EEB0101B1F525
:100A8000801F1BD3B1F5001F0CD349085FEA30006B
:100A90004FEA3C0C04F101044FEA445212F5800F76
:100AA00080F09A80BCF1004F08BF5FEA500C50F113
:100AB000000041EB045141EA050130BD5FEA4C0CF6
:100AC000404141EB010111F4801FA4F10104E9D17F
:100AD00091F0000F04BF01460020B1FA81F308BF76
:100AE0002033A3F10B03B3F120020CDA0C3208DD42
:100AF00002F1140CC2F10C0201FA0CF021FA02F11D
:100B00000CE002F11402D8BFC2F1200C01FA02F18C
:100B100020FA0CFCDCBF41EA0C019040E41AA2BFB1
:100B200001EB0451294330BD6FEA04041F3C1CDA79
:100B30000C340EDC04F11404C4F1200220FA04F099
:100B400001FA02F340EA030021FA04F345EA030143
:100B500030BDC4F10C04C4F1200220FA02F001FA05
:100B600004F340EA0300294630BD21FA04F0294687
:100B700030BD94F0000F83F4801306BF81F4801120
:100B80000134013D4EE77FEA645C18BF7FEA655C93
:100B900029D094EA050F08BF90EA020F05D054EA65
:100BA000000C04BF1946104630BD91EA030F1EBF6A
:100BB0000021002030BD5FEA545C05D1400049416E
:100BC00028BF41F0004130BD14F580043CBF01F561
:100BD000801130BD01F0004545F0FE4141F4700147
:100BE0004FF0000030BD7FEA645C1ABF1946104622
:100BF0007FEA655C1CBF0B46024650EA013406BF23
:100C000052EA033591EA030F41F4002130BD00BFE1
:100C100090F0000F04BF0021704730B54FF480649E
:100C200004F132044FF000054FF0000150E700BF1F
:100C300090F0000F04BF0021704730B54FF480647E
:100C400004F1320410F0004548BF40424FF000016B
:100C50003EE700BF42004FEAE2014FEA31014FEAAE
:100C600002701FBF12F07F4393F07F4F81F06051FD
:100C7000704792F0000F14BF93F07F4F704730B56C
:100C80004FF4607401F0004521F0004120E700BFFF
:100C900050EA010208BF704730B54FF000050AE086
:100CA00050EA010208BF704730B511F0004502D587
:100CB000404261EB41014FF4806404F132045FEA89
:100CC000915C3FF4DCAE4FF003025FEADC0C18BF2E
:100CD00003325FEADC0C18BF033202EBDC02C2F124
:100CE000200300FA03FC20FA02F001FA03FE40EAB6
:100CF0000E0021FA02F11444C1E600BF70B54FF0B6
:100D0000FF0C4CF4E06C1CEA11541DBF1CEA135597
:100D100094EA0C0F95EA0C0F00F0DEF82C4481EAFF
:100D2000030621EA4C5123EA4C5350EA013518BF1F
:100D300052EA033541F4801143F4801338D0A0FB0C
:100D400002CE4FF00005E1FB02E506F00042E0FBB9
:100D500003E54FF00006E1FB03569CF0000F18BFBF
:100D60004EF0010EA4F1FF04B6F5007F64F5407467
:100D700004D25FEA4E0E6D4146EB060642EAC621FA
:100D800041EA55514FEAC52040EA5E504FEACE2E67
:100D9000B4F1FD0C88BFBCF5E06F1ED8BEF1004F6A
:100DA00008BF5FEA500E50F1000041EB045170BDE6
:100DB00006F0004646EA010140EA020081EA03012A
:100DC000B4EB5C04C2BFD4EB0C0541EA045170BD26
:100DD00041F480114FF0000E013C00F3AB8014F1A0
:100DE000360FDEBF002001F0004170BDC4F10004E9
:100DF000203C35DA0C341BDC04F11404C4F120056A
:100E000000FA05F320FA04F001FA05F240EA0200C4
:100E100001F0004221F0004110EBD37021FA04F6FA
:100E200042EB06015EEA430E08BF20EAD37070BDB4
:100E3000C4F10C04C4F1200500FA04F320FA05F013
:100E400001FA04F240EA020001F0004110EBD37015
:100E500041F100015EEA430E08BF20EAD37070BD85
:100E6000C4F1200500FA05F24EEA020E20FA04F35E
:100E700001FA05F243EA020321FA04F001F000410D
:100E800021FA04F220EA020000EBD3705EEA430E7E
:100E900008BF20EAD37070BD94F0000F0FD101F0AD
:100EA0000046400041EB010111F4801F08BF013CE6
:100EB000F7D041EA060195F0000F18BF704703F024
:100EC0000046520043EB030313F4801F08BF013DAB
:100ED000F7D043EA0603704794EA0C0F0CEA135567
:100EE00018BF95EA0C0F0CD050EA410618BF52EA21
:100EF0004306D1D181EA030101F000414FF0000027
:100F000070BD50EA410606BF1046194652EA430634
:100F100019D094EA0C0F02D150EA013613D195EAA8
:100F20000C0F05D152EA03361CBF104619460AD1F0
:100F300081EA030101F0004141F0FE4141F47001FA
:100F40004FF0000070BD41F0FE4141F4780170BDEA
:100F500070B54FF0FF0C4CF4E06C1CEA11541DBF4F
:100F60001CEA135594EA0C0F95EA0C0F00F0A7F851
:100F7000A4EB050481EA030E52EA03354FEA01317E
:100F800000F088804FEA03334FF0805545EA131391
:100F900043EA12634FEA022245EA111545EA106559
:100FA0004FEA00260EF000419D4208BF964244F1F0
:100FB000FD0404F5407402D25B084FEA3202B61A0F
:100FC00065EB03055B084FEA32024FF480104FF4E3
:100FD000002CB6EB020E75EB030E22BFB61A754657
:100FE00040EA0C005B084FEA3202B6EB020E75EBEA
:100FF000030E22BFB61A754640EA5C005B084FEA52
:101000003202B6EB020E75EB030E22BFB61A75461E
:1010100040EA9C005B084FEA3202B6EB020E75EB29
:10102000030E22BFB61A754640EADC0055EA060EEA
:1010300018D04FEA051545EA16754FEA06164FEA2D
:10104000C30343EA52734FEAC2025FEA1C1CC0D1D9
:1010500011F4801F0BD141EA00014FF000004FF066
:10106000004CB6E711F4801F04BF01430020B4F127
:10107000FD0C88BFBCF5E06F3FF6AFAEB5EB030CDF
:1010800004BFB6EB020C5FEA500C50F1000041EBDC
:10109000045170BD0EF0004E4EEA113114EB5C04A9
:1010A000C2BFD4EB0C0541EA045170BD41F480117C
:1010B0004FF0000E013C90E645EA060E8DE60CEA84
:1010C000135594EA0C0F08BF95EA0C0F3FF43BAFA1
:1010D00094EA0C0F0AD150EA01347FF434AF95EA58
:1010E0000C0F7FF425AF104619462CE795EA0C0F3C
:1010F00006D152EA03353FF4FDAE1046194622E709
:1011000050EA410618BF52EA43067FF4C5AE50EAE2
:1011100041047FF40DAF52EA43057FF4EBAE12E7D2
:101120004FF0FF3C06E000BF4FF0010C02E000BFB3
:101130004FF0010C4DF804CD4FEA410C7FEA6C5C96
:101140004FEA430C18BF7FEA6C5C1BD001B050EA39
:10115000410C0CBF52EA430C91EA030F02BF90EA24
:10116000020F0020704710F1000F91EA030F58BFE3
:10117000994208BF90422CBFD8176FEAE37040F045
:10118000010070474FEA410C7FEA6C5C02D150EAE3
:10119000013C07D14FEA430C7FEA6C5CD6D152EA9E
:1011A000033CD3D05DF8040B704700BF8446104663
:1011B00062468C461946634600E000BF01B5FFF762
:1011C000B7FF002848BF10F1000F01BD4DF808ED32
:1011D000FFF7F4FF0CBF012000205DF808FB00BF03
:1011E0004DF808EDFFF7EAFF34BF012000205DF85D
:1011F00008FB00BF4DF808EDFFF7E0FF94BF0120AA
:1012000000205DF808FB00BF4DF808EDFFF7CEFFAA
:1012100094BF012000205DF808FB00BF4DF808EDE9
:10122000FFF7C4FF34BF012000205DF808FB00BFBA
:101230004FEA410212F5001215D211D56FF47873FE
:10124000B3EB625212D94FEAC12343F0004343EAA1
:10125000505311F0004F23FA02F018BF404270477C
:101260004FF00000704750EA013005D111F0004006
:1012700008BF6FF0004070474FF00000704700BF9C
:1012800080F0004002E000BF81F0004142001FBF3B
:101290005FEA410392EA030F7FEA226C7FEA236C44
:1012A0006AD04FEA1262D2EB1363C1BFD218414039
:1012B00048404140B8BF5B42192B88BF704710F0CF
:1012C000004F40F4000020F07F4018BF404211F072
:1012D000004F41F4000121F07F4118BF494292EADA
:1012E000030F3FD0A2F1010241FA03FC10EB0C0006
:1012F000C3F1200301FA03F100F0004302D5494293
:1013000060EB4000B0F5000F13D3B0F1807F06D33F
:1013100040084FEA310102F10102FE2A51D2B1F137
:10132000004F40EBC25008BF20F0010040EA03002C
:101330007047490040EB000010F4000FA2F10102D9
:10134000EDD1B0FA80FCACF1080CB2EB0C0200FA63
:101350000CF0AABF00EBC25052421843BCBFD040B1
:101360001843704792F0000F81F4000106BF80F42B
:1013700000000132013BB5E74FEA41037FEA226CEE
:1013800018BF7FEA236C21D092EA030F04D092F0B9
:10139000000F08BF0846704790EA010F1CBF0020ED
:1013A000704712F07F4F04D1400028BF40F000404A
:1013B000704712F100723CBF00F50000704700F06A
:1013C000004343F0FE4040F4000070477FEA226291
:1013D00016BF08467FEA23630146420206BF5FEA62
:1013E000412390EA010F40F4800070474FF0000362
:1013F00004E000BF10F0004348BF40425FEA000C29
:1014000008BF704743F0964301464FF000001CE0D0
:1014100050EA010208BF70474FF000030AE000BF26
:1014200050EA010208BF704711F0004302D5404264
:1014300061EB41015FEA010C02BF844601460020D6
:1014400043F0B64308BFA3F18053A3F50003BCFAF1
:101450008CF2083AA3EBC25310DB01FA02FC63449E
:1014600000FA02FCC2F12002BCF1004F20FA02F2A5
:1014700043EB020008BF20F00100704702F1200298
:1014800001FA02FCC2F1200250EA4C0021FA02F2F9
:1014900043EB020008BF20EADC7070474FF0FF0CFE
:1014A0001CEAD0521EBF1CEAD15392EA0C0F93EAF9
:1014B0000C0F6FD01A4480EA010C400218BF5FEA9B
:1014C00041211ED04FF0006343EA501043EA51110E
:1014D000A0FB01310CF00040B1F5000F3EBF490008
:1014E00041EAD3715B0040EA010062F17F02FD2A0C
:1014F0001DD8B3F1004F40EBC25008BF20F00100EF
:10150000704790F0000F0CF0004C08BF49024CEA05
:10151000502040EA51207F3AC2BFD2F1FF0340EA97
:10152000C250704740F400004FF00003013A5DDC08
:1015300012F1190FDCBF00F000407047C2F1000249
:10154000410021FA02F1C2F1200200FA02FC5FEA36
:10155000310040F1000053EA4C0308BF20EADC7080
:10156000704792F0000F00F0004C02BF400010F4F2
:10157000000F013AF9D040EA0C0093F0000F01F09F
:10158000004C02BF490011F4000F013BF9D041EAC1
:101590000C018FE70CEAD15392EA0C0F18BF93EAC3
:1015A0000C0F0AD030F0004C18BF31F0004CD8D1ED
:1015B00080EA010000F00040704790F0000F17BF74
:1015C00090F0004F084691F0000F91F0004F14D0BA
:1015D00092EA0C0F01D142020FD193EA0C0F03D112
:1015E0004B0218BF084608D180EA010000F0004015
:1015F00040F0FE4040F40000704740F0FE4040F4F0
:10160000400070474FF0FF0C1CEAD0521EBF1CEA8E
:10161000D15392EA0C0F93EA0C0F69D0A2EB0302AC
:1016200080EA010C49024FEA402037D04FF0805346
:1016300043EA111143EA10130CF000408B4238BF0B
:101640005B0042F17D024FF4000C8B4224BF5B1A19
:1016500040EA0C00B3EB510F24BFA3EB510340EA67
:101660005C00B3EB910F24BFA3EB910340EA9C0015
:10167000B3EBD10F24BFA3EBD10340EADC001B0185
:1016800018BF5FEA1C1CE0D1FD2A3FF650AF8B4229
:1016900040EBC25008BF20F0010070470CF0004C36
:1016A0004CEA50207F32C2BFD2F1FF0340EAC25061
:1016B000704740F400004FF00003013A37E792F022
:1016C000000F00F0004C02BF400010F4000F013A80
:1016D000F9D040EA0C0093F0000F01F0004C02BF7B
:1016E000490011F4000F013BF9D041EA0C0195E7E4
:1016F0000CEAD15392EA0C0F08D142027FF47DAF7D
:1017000093EA0C0F7FF470AF084676E793EA0C0F6C
:1017100004D14B023FF44CAF08466EE730F0004C6A
:1017200018BF31F0004CCAD130F000427FF45CAFFA
:1017300031F000437FF43CAF5FE700BF4FEA400267
:10174000B2F1FE4F0FD34FF09E03B3EB12620DD9EF
:101750004FEA002343F0004310F0004F23FA02F059
:1017600018BF404270474FF00000704712F1610F00
:1017700001D1420205D110F0004008BF6FF00040D7
:1017800070474FF00000704742000ED2B2F1FE4F9A
:101790000BD34FF09E03B3EB126209D44FEA002340
:1017A00043F0004323FA02F070474FF00000704707
:1017B00012F1610F01D1420202D14FF0FF307047A8
:1017C0004FF00000704700BF73B96AB9002908BF25
:1017D0000028BCBF00204FF00041C4BF6FF00041A3
:1017E0004FF0FF30FFF7D0B882B0EC462DE9005043
:1017F00000F006F8DDF804E002B00CBC704700BF52
:101800002DE970431646804689461D4600F028F8AB
:1018100000FB05F3A0FB064506FB0136069B751988
:10182000B8EB040469EB0505C3E90045BDE8708326
:101830002DE970431646804689461D4600F0C2F9E0
:1018400000FB05F3A0FB064506FB0136069B751958
:10185000B8EB040469EB0505C3E90045BDE87083F6
:1018600000292DE9F04F1C4685B0C0F2CB80002640
:10187000002CC0F2C2808C461746144605468846A6
:101880009A46002B49D18A426DD9B2FA82F353B1FC
:10189000C3F1200001FA03F835FA00F217FA03F455
:1018A00042EA08089D404FEA144A404651461FFA52
:1018B00084FBFEF7D5FD51462F0C81464046FEF7CE
:1018C000FDFE0BFB09F347EA0148434509D918EB34
:1018D000040809F1FF3904D2434584BF09F1FF39F7
:1018E000A044C3EB080851464046ADB2FEF7B8FD30
:1018F000514607464046FEF7E1FE0BFB07FB45EA73
:101900000145AB4505D9013F2D1902D2AB4588BF32
:10191000013F47EA0949002403E08B420CD9002427
:10192000A1464A46234616B1524263EB4303104692
:10193000194605B0BDE8F08FB3FA83F4002C40F0EF
:10194000B4808B424FF001092CBF4FF0000C4FF0D8
:10195000010C82428CBF67464CF00107002FE0D19A
:101960003C46B946DDE722B901201146FEF778FD75
:101970000446B4FA84F3002B4AD1C4EB0808270CC0
:101980001FFA84FA0121029139464046FEF768FDAC
:1019900039464FEA154B81464046FEF78FFE0AFB5B
:1019A00009F34BEA014B5B4509D91BEB040B09F129
:1019B000FF3904D25B4584BF09F1FF39A344C3EB6F
:1019C0000B0B39465846ADB2FEF74AFD3946804604
:1019D0005846FEF773FE0AFB08FA45EA0145AA4598
:1019E00007D92D1908F1FF3803D2AA4588BF08F19D
:1019F000FF3848EA0949029C93E7F643524263EBF9
:101A0000430338E7404261EB41014FF0FF362FE7D7
:101A10009C40C3F1200028FA00FA08FA03FB270CC7
:101A200035FA00F23946504642EA0B029D400292D6
:101A3000FEF716FD394683465046FEF73FFE029BF1
:101A40001FFA84FA4FEA13490AFB0BF349EA0148EB
:101A5000434505D918EB04080BF1FF3BC0F0AB8000
:101A6000C3EB080839464046FEF7FAFC3946814682
:101A70004046FEF723FE029A0AFB09F31FFA82FC96
:101A80004CEA0148434509D918EB040809F1FF392C
:101A900004D2434584BF09F1FF39A04449EA0B4E03
:101AA000C3EB0808CDF808E06EE7C4F1200003FAA4
:101AB00004FA32FA00F321FA00F843EA0A0A35FA86
:101AC00000F201FA04F940464FEA1A4B42EA0901D2
:101AD0000391594617FA04F30293FEF7C1FC5946E5
:101AE00081464046FEF7EAFD1FFA8AF3039803FB9E
:101AF00009F2070C47EA0148424504D918EB0A08E5
:101B000009F1FF3951D3C2EB080859464046019309
:101B1000FEF7A6FC594607464046FEF7CFFD019862
:101B2000039A00FB07F31FFA82FC4CEA014C634561
:101B300007D9013F1CEB0A0C03D2634501D9013FD1
:101B4000D44447EA0949029FC3EB0C031FFA89FEFC
:101B50004FEA1940B9B23F0C01FB0EF801FB00F14E
:101B600007FB0E1207FB00FC02EB1842914288BFF4
:101B70000CF5803C0CEB124E734512D34FEA024237
:101B80001FFA88F814BF0023012302EB080C15FA92
:101B900004F464452CBF002403F00104002C3FF43E
:101BA000C0AE09F1FF390024BBE6424584BF09F10C
:101BB000FF39D044A7E7434584BF0BF1FF3BA04466
:101BC0004EE700BF2DE9F04F054683B00C4617469F
:101BD00080460E46002B4FD18A4263D9B2FA82F377
:101BE00053B1C3F1200011FA03F635FA00F29F4019
:101BF00042EA060605FA03F83C0C304621461FFA75
:101C000087FAFEF72DFC21464FEA184581463046FB
:101C1000FEF754FD0AFB09F345EA0146B34208D931
:101C2000F61909F1FF3904D2B34284BF09F1FF3933
:101C3000F619F61A214630461FFA88F8FEF710FC0E
:101C4000214605463046FEF739FD0AFB05FA48EA0B
:101C50000148C24506D9013D18EB070802D2C2452A
:101C600088BF013D45EA094A00263146D046B146C3
:101C7000504603B0BDE8F08F8B425BD8B3FA83F6D1
:101C8000002E5AD18B424FF0010A2CBF00240124B0
:101C900082428CBF254644F00105002DE5D12E4639
:101CA000AA46E2E722B901201146FEF7D9FB074612
:101CB000B7FA87F3002B40F0BB80E41B4FEA174BC9
:101CC000BDB2012659462046FEF7CAFB5946824658
:101CD0002046FEF7F3FC4FEA184C05FB0AF34CEAEA
:101CE0000144A34208D9E4190AF1FF3A04D2A342FD
:101CF00084BF0AF1FF3AE419E41A59462046FEF778
:101D0000AFFB594681462046FEF7D8FC1FFA88F300
:101D100005FB09F543EA0148454508D918EB0708D2
:101D200009F1FF3903D2454588BF09F1FF3949EA76
:101D30000A4A9AE70026B24697E7C6F1200013FA4E
:101D400006F132FA00F735FA00F30F4324FA00FBEC
:101D5000B44058464FEA174843EA0401019141460E
:101D600012FA06F40094FEF77BFB4146BCB28246B1
:101D70005846FEF7A3FC019A04FB0AF34FEA124B04
:101D80004BEA014B5B4505D91BEB070B0AF1FF3A08
:101D9000C0F09680C3EB0B0B41465846FEF760FB44
:101DA000414681465846FEF789FC019A04FB09F436
:101DB0001FFA82F848EA01439C4203D9DB1909F172
:101DC000FF3977D3009F49EA0A4A1C1B1FFA8AF1A0
:101DD0001FFA87F83A0C4FEA1A4708FB01FC08FB88
:101DE00007F302FB013002FB07F900EB1C418B42B9
:101DF00088BF09F5803909EB114E744514D34FEAB9
:101E000001491FFA8CF314BF4FF0000E4FF0010E82
:101E100009EB030C15FA06F666452CBF00260EF0FA
:101E20000106002E3FF421AF0AF1FF3A00261CE71D
:101E30009F40C3F1200924FA09F614FA03F24FEA8D
:101E4000174B25FA09FA5946304605FA03F84AEACB
:101E5000020AFEF705FB5946BDB24FEA1A44814615
:101E60003046FEF72BFC05FB09F344EA0144A3428C
:101E700003D9E41909F1FF3928D3E41A5946204659
:101E8000FEF7EEFA594606462046FEF717FC1FFA03
:101E90008AF005FB06F340EA0144A34206D9013E5D
:101EA000E41903D2A34201D9013EE419E41A46EA37
:101EB000094607E79C4284BF09F1FF39DB1981E736
:101EC0005B4584BF0AF1FF3ABB4463E7A34284BF8A
:101ED00009F1FF39E419D0E7684620F007018D4683
:101EE0002DE9F14FADF5287D12AF4EF2BC43C0F69F
:101EF0000003C7F8503240F20003C2F20003C7F8F3
:101F00004C3211E0D7F850321A68D7F84C321A60C8
:101F1000D7F84C3203F10403C7F84C32D7F85032EB
:101F200003F10403C7F85032D7F84C2240F2F413FF
:101F3000C2F200039A42E5D340F2F813C2F2000362
:101F4000C7F84C320AE0D7F84C324FF000021A6062
:101F5000D7F84C3203F10403C7F84C32D7F84C22BF
:101F600041F2A413C2F200039A42ECD340F2F813F8
:101F7000C2F200034FF000021A7040F2FC13C2F2EA
:101F800000034FF000021A6040F20023C2F2000387
:101F90004FF000021A7040F20423C2F200034FF027
:101FA00000021A6040F20823C2F200034FF0000260
:101FB0001A6040F20C23C2F200034FF000021A70C4
:101FC00040F20D23C2F200034FF000021A7040F2FB
:101FD0001023C2F200034FF0FF021A6040F21423F4
:101FE000C2F200034FF0FF021A7040F21523C2F252
:101FF00000034FF000021A704FF00003C7F854328C
:1020000019E040F25073C2F20003D7F854229B1833
:102010004FF07F021A7040F65C03C2F20003D7F85B
:1020200054229B184FF07F021A70D7F8543203F1F4
:102030000103C7F85432D7F854320B2BE1DD40F2DC
:102040005073C2F200034FF00002DA7140F2507395
:10205000C2F200034FF000021A7240F65C03C2F2B3
:1020600000034FF00002DA7140F65C03C2F2000395
:102070004FF000021A7203F0A7FB00F069FD01F0B7
:1020800055FF40F2F813C2F200034FF001021A703C
:1020900001F03CF80346002B00F09E824FF0C80090
:1020A00001F00AFA06F05CFD4FF0200000F008FF96
:1020B0000346002B6BD040F20023C2F200031B78D2
:1020C000002B64D140F25073C2F200031B784FF032
:1020D0000100194604F0E2F940F25073C2F2000325
:1020E0005B784FF00200194604F0D8F940F25073C3
:1020F000C2F200039B784FF00300194604F0CEF9BA
:1021000040F25073C2F20003DB784FF0040019462E
:1021100004F0C4F940F25073C2F200031B794FF08F
:102120000500194604F0BAF940F65C03C2F2000358
:102130001B784FF00600194604F0B0F940F65C0336
:10214000C2F200035B784FF00700194604F0A6F9CD
:1021500040F65C03C2F200039B784FF0080019467A
:1021600004F09CF940F65C03C2F20003DB784FF008
:102170000900194604F092F940F65C03C2F200032C
:102180001B794FF00A00194604F088F99AE74FF0DE
:102190000A0001F091F940F21523C2F200031B7806
:1021A000002B0CD04FF47A7001F086F940F2152321
:1021B000C2F200034FF000021A7006F0D1FC4FF09B
:1021C000320001F079F94FF00003C7F8483207F107
:1021D0003C024DF62C23C0F600031B88138002F14D
:1021E00002024FF4FF7310464FF000011A46FEF74B
:1021F0008BF84FF00003C7F8483236E0D7F8483282
:10220000DBB203F10103DBB2184603F047FB0346E0
:10221000002B13D1D7F84832DBB203F10103DBB254
:10222000184603F033FD034603F10303DAB207F562
:102230000F71D7F84832CB181A7010E0D7F848322F
:10224000DBB203F10103DBB2184603F071FC034675
:102250001A4607F50F71D7F84832CB181A70D7F81D
:10226000483203F10103C7F84832D7F848320B2B44
:10227000C4DD97F83C321E4697F83D321D4697F86C
:102280003E32184697F83F321C4697F840327B633F
:1022900097F841323B6397F84232FB6297F843323A
:1022A0009B4697F844329A4697F84532994697F8F4
:1022B0004632984697F847329C4640F22033C2F2A5
:1022C00000031B681B799E4640F22033C2F20003D4
:1022D0001B685B79194640F20023C2F200031B78A9
:1022E0001A4607F13C0300900194786B0290386B1A
:1022F0000390F86A0490CDF814B0CDF818A0CDF88A
:102300001C90CDF82080CDF824C0CDF828E00B91AA
:102310000C9218464DF68C11C0F6000132462B4641
:1023200009F0F2FE4FF00003C7F8483207F13C0213
:10233000D7F84832D3181B78002B49D14FF00D0045
:1023400005F0A0F94FF0320001F0B6F84FF00100AF
:1023500003F020FC05464FF0020003F01BFC04468E
:102360004FF0030003F016FC83464FF0040003F027
:1023700011FC82464FF0050003F00CFC81464FF043
:10238000060003F007FC80464FF0070003F002FC54
:1023900006464FF0080003F0FDFB024607F13C0340
:1023A000CDF800B0CDF804A0CDF80890CDF80C80A1
:1023B0000496059218464DF6C011C0F600012A4653
:1023C000234609F0A1FE4FF00003C7F8483210E0A1
:1023D00007F13C02D7F84832D3181B785BB2D7F824
:1023E000482202F10102C7F84822184605F04AF9CE
:1023F0009CE707F13C02D7F84832D3181B78002B32
:1024000040F0BB804FF00D0005F03CF94FF032007A
:1024100001F052F840F69C43C2F200031B68BB6215
:1024200040F69C43C2F200039B687B6240F69C43EB
:10243000C2F200031B699E4640F69C43C2F20003B1
:102440009B699C4640F69C43C2F200031B6A984677
:1024500040F69C43C2F200039B6A9A4640F69C43B6
:10246000C2F200031B6B9B4640F69C43C2F2000382
:102470009B6B3B6240F69C43C2F200031B6CFB610A
:1024800040F69C43C2F200039B6CBB6140F69C4348
:10249000C2F200039B889BB27B6140F69C43C2F270
:1024A00000039B899BB23B6140F69C43C2F2000350
:1024B0009B8A9BB2FB6040F69C43C2F200039B8B5D
:1024C0009BB2994640F69C43C2F200039B8C9BB2A0
:1024D0001E4640F69C43C2F200039B8D9BB21D46F4
:1024E00040F69C43C2F200039B8E9BB21C4640F612
:1024F0009C43C2F200039B8F9BB2184640F69C435C
:10250000C2F20003B3F844309BB2194640F69C4334
:10251000C2F20003B3F84C309BB21A4607F13C03F9
:102520007B60CDF800E0CDF804C0CDF80880CDF890
:102530000CA0CDF810B03B6A0593FB690693BB690C
:1025400007937B6908933B690993FB680A93CDF86D
:102550002C900C960D950E940F9010911192786816
:102560004DF6E011C0F60001BA6A7B6A09F0CCFDB5
:102570004FF00003C7F8483210E007F13C02D7F8EB
:102580004832D3181B785BB2D7F8482202F1010217
:10259000C7F84822184605F075F82AE707F13C020B
:1025A000D7F84832D3181B78002B04D14FF00D0018
:1025B00005F068F8EBE507F13C02D7F84832D3188C
:1025C0001B785BB2D7F8482202F10102C7F8482213
:1025D000184605F057F8E1E740F2FC13C2F2000399
:1025E0001B68002B1ED140F20423C2F200031B68BB
:1025F000002B17D14FF0C80000F05EFF03E04FF052
:10260000640000F059FF40F22033C2F200031B685F
:102610009B78082BF3D14FF0640000F04DFF00F0E1
:1026200087FA01E000F002F8FEE700BF80B584B051
:1026300000AF40F20823C2F200034FF000021A601C
:1026400040F21023C2F200034FF0FF021A6000F0C4
:1026500095FD4FF0C80000F02FFF03E04FF064003D
:1026600000F02AFF40F22033C2F200031B689B787F
:10267000082BF3D14FF00003FB6036E0FB6803F159
:102680006403FB60FA6844F6D353C1F2620383FB30
:1026900002134FEAE3114FEAE273CB1A4FF4FA61E7
:1026A00001FB03F3D31A002B1BD140F2FC13C2F23F
:1026B00000031A6840F20423C2F200031B684DF6BF
:1026C0002C40C0F6000011461A4604F06DFA4FF097
:1026D000320000F0F1FE4DF64840C0F6000004F074
:1026E00063FA4FF0640000F0E7FE40F2FC13C2F220
:1026F00000031B68B3F1FF3F0FD040F20423C2F286
:1027000000031B68B3F1FF3F07D040F22033C2F251
:1027100000031B68DB78002BB0D040F22033C2F2FC
:1027200000031B68DB7803F00803002B0DD040F298
:10273000FC13C2F200034FF0FF321A6040F2042390
:10274000C2F200034FF0FF321A6040F2FC13C2F2F3
:1027500000031B68B3F1FF3F37D14DF66040C0F670
:10276000000004F021FA40F20D23C2F200034FF002
:1027700001021A7000F05CFA40F20D23C2F200036D
:102780004FF000021A7003E04FF0640000F094FE76
:1027900000F0E6FB0346002BF6D000F05FFE034698
:1027A0001A4640F20823C2F200031A6000F0B8FB98
:1027B0000346002B04D04FF0000000F03FFA03E086
:1027C0004FF0000000F044FAFEE700F0D7FB0346AC
:1027D000002B00F0A88140F2FC13C2F200031B683A
:1027E000002B06D140F2FC13C2F200034FF00102AD
:1027F0001A6000F0B5FB0346002B3ED14FF00003FA
:10280000BB6000E000BF4FF0640000F055FE40F2F6
:102810002033C2F200031B68DB7803F00803002BAF
:1028200003D04FF0060000F05FFBBB6803F16403C8
:10283000BB60BA6844F6D353C1F2620383FB021350
:102840004FEAE3114FEAE273CB1A4FF4FA6101FB4E
:1028500003F3D31A002BD5D14DF68840C0F6000003
:1028600004F0A2F94FF0320000F026FE4DF6AC4025
:10287000C0F6000004F098F9C5E700F051FB0346EC
:10288000002B00F00A814FF000037B6086E04FF0E0
:10289000640000F011FE40F22033C2F200031B6816
:1028A000DB7803F00803002B23D040F22033C2F280
:1028B00000031B68DB7823F07F03DBB24FF00200DC
:1028C000194600F0E7FA40F22033C2F200031B6819
:1028D000DB7803F04003002B0CBF00230123DBB2A5
:1028E0004FF00100194600F0D5FA4FF00B0000F050
:1028F000FBFA7B6803F164037B607A6844F6D35388
:10290000C1F2620383FB02134FEAE3114FEAE27361
:10291000CB1A4FF4FA6101FB03F3D31A002B3DD11C
:1029200040F2FC13C2F200031A6840F20423C2F220
:1029300000031B684DF62C40C0F6000011461A46F5
:1029400004F032F94FF0320000F0B6FD40F2FC1313
:10295000C2F200031A6840F20423C2F200031B68AB
:102960004DF6CC40C0F6000011461A4604F01CF9A2
:102970004FF0320000F0A0FD40F2FC13C2F2000361
:102980001A6840F20423C2F200031B684DF600509F
:10299000C0F6000011461A4604F006F940F2203352
:1029A000C2F200031B68DB7803F00103002B0AD19D
:1029B00040F22033C2F200031B68DB7803F002030D
:1029C000002B3FF464AF40F20C23C2F200031B78EB
:1029D000002B20D140F22033C2F200031B685B7B46
:1029E000002B18D140F22033C2F200031B689B7BFE
:1029F000002B10D140F22033C2F200031B685B7E33
:102A0000002B08D140F22033C2F200031B689B7EEA
:102A1000002B3FF43CAF40F2FC13C2F200031B68F2
:102A2000012B2FD040F20823C2F200034FF0000226
:102A30001A6040F21023C2F200034FF0FF021A6046
:102A400000F00CFD03461A4640F20823C2F20003D0
:102A50001A6040F20D23C2F200034FF001021A7017
:102A600000F0E6F840F20D23C2F200034FF000023E
:102A70001A7040F2FC13C2F200031B68184600F003
:102A8000DDF809E04FF001004FF0010100F002FA1B
:102A90004FF0030000F028FAFEE740F20423C2F2F0
:102AA00000031B68002B3ED000F03AFA0346002BCF
:102AB00039D140F20823C2F200034FF000021A603D
:102AC00040F21023C2F200034FF0FF021A6040F2FE
:102AD0000423C2F200031A6840F2FC13C2F200039E
:102AE0001A6000F0BBFC03461A4640F20823C2F20B
:102AF00000031A6040F20D23C2F200034FF00102FE
:102B00001A7000F095F840F20D23C2F200034FF066
:102B100000021A7040F20423C2F200031B68184638
:102B200000F096F8FEE74FF47A7000F0C5FCFAE783
:102B300080B500AF00F07CF84FF0000000F07EF8A8
:102B40004FF0000000F084F84FF00103184680BDFC
:102B500080B588B008AF4FF0FF304FF0FF3100F084
:102B600071FA4FF0000000F091FA4DF62850C0F6CF
:102B7000000000F02BFA4FF0010300934FF0010327
:102B800001934FF0010302934FF0010303934FF0C1
:102B9000000304934FF0000305934FF000030693E6
:102BA0004FF0000307934FF001004FF001014FF089
:102BB00001024FF0010302F019FF4FF005030093EB
:102BC0004FF0060301934FF0070302934FF0080301
:102BD00003934FF0090304934FF00A0305934FF05A
:102BE00001004FF002014FF003024FF0040306F022
:102BF00023F84FF0000300934FF0000301934FF0D0
:102C0000000302934FF0000303934FF0000304937B
:102C10004FF0000305934FF000004FF000014FF01C
:102C200000024FF0000306F00BF9BD4680BD00BF67
:102C300080B400AFBD4680BC704700BF80B483B095
:102C400000AF786007F10C07BD4680BC704700BF3D
:102C500080B582B000AF78604FF001004FF0020104
:102C600003F088FF024640F26C23C2F200031A60B0
:102C70004FF001004FF0040103F07CFF024640F2E8
:102C80007023C2F200031A6040F26C23C2F2000308
:102C9000186840F27023C2F20003196840F2000382
:102CA000C2F200031B781A4640F20103C2F200038D
:102CB0001B7800F001F8CFE790B58BB000AFF8605B
:102CC000B960FA71BB71FB684DF62C50C0F600007C
:102CD000194603F069FF4DF62C50C0F60000B968A4
:102CE00003F062FF4FF000037B624FF000033B6292
:102CF000FB68FB61F869FDF78BFF02460B464FF05E
:102D000001010C461046194643A3D3E90023FEF700
:102D100067FA0346002B02D14FF000031C46FC76F5
:102D2000FB7E002B15D0FB79BA6802FB03F37B61B5
:102D3000FA687B69D318184600F076F803467B6280
:102D4000FA687B69D31A184600F06EF803463B62B6
:102D500039E007F10C03184600F080F8FB681846CC
:102D6000FEF748FB03463B6138692D49FEF74AFCF4
:102D700003463B61B868FEF73DFB034618463969D8
:102D8000FEF78CFB03461C46BB791846FEF732FB68
:102D9000034620461946FEF781FB03461846FEF718
:102DA000CDFC03467B61FA687B69D318184600F0B6
:102DB0003BF803467B62FA687B69D31A184600F039
:102DC00033F803463B62FB684DF62C50C0F600001A
:102DD000194603F0E9FE4DF62C50C0F60000B96824
:102DE00003F0E2FE4FF00600796A03F087FC4FF033
:102DF0000700796A03F082FC4FF00800396A03F09B
:102E00007DFC4FF00900396A03F078FC07F12C07CC
:102E1000BD4690BDAFF300809A9999999999C93FA1
:102E20000000FE42AFF3008080B483B000AF786052
:102E30007B687F2B02DD4FF07F0308E07B6813F196
:102E40007F0F02DA4FF0810301E07B68DBB25BB2F7
:102E5000184607F10C07BD4680BC704780B483B0AC
:102E600000AF78607B681B687F2B04DD7B684FF0C8
:102E70007F021A6008E07B681B6813F17F0F03DA9A
:102E80007B686FF07E021A6007F10C07BD4680BCBC
:102E9000704700BF80B582B000AF02460B46FA8093
:102EA0007B71FA887B794FF4E050C4F2010011463F
:102EB0001A4606F0F7FE07F10807BD4680BD00BFC1
:102EC00080B582B000AF0346FB80FB884FF4E05032
:102ED000C4F20100194606F0A9FE0346184607F1A0
:102EE0000807BD4680BD00BF80B582B000AF034675
:102EF000FB7102F05BFFFB79012B02D0FB79022B07
:102F000001D100F0B7F94FF010004FF00101FFF7C9
:102F1000C1FF4FF0010080F3108807F099FAFEE737
:102F200080B500AF40F2FC13C2F200031B68002B17
:102F30000ADD4FF00100FFF7C3FF0346002B14BF6B
:102F400000230123DBB209E04FF00100FFF7B8FFD7
:102F50000346002B0CBF00230123DBB2184680BDC3
:102F600080B500AF4FF00200FFF7AAFF0346002B29
:102F700014BF00230123DBB2184680BD80B400AF2C
:102F800040F2FC13C2F200031B68002B17DB40F277
:102F90000423C2F200031B68002B10DB40F2FC1379
:102FA000C2F200031B68002B06DC40F20423C2F2CD
:102FB00000031B68002B02DD4FF0010301E04FF01E
:102FC00000031846BD4680BC704700BF80B584B082
:102FD00000AF78604FF00003FB600CE040F20403A8
:102FE000C2F20003FA689B184FF020021A70FB68C7
:102FF00003F10103FB60FB68072BEFDD7868FDF749
:10300000FDF90346BB60BB68082B17DC4FF00003DB
:10301000FB600FE0FB687A68D3181B78DAB240F2E5
:103020000403C2F20003F9685B181A70FB6803F12D
:103030000103FB60FA68BB689A42EBDB07F11007FB
:10304000BD4680BD80B483B000AF786039607B68D6
:10305000B3F1FF3F03D03B68B3F1FF3F05D14FF021
:10306000FF337B604FF0FF333B6040F2FC13C2F252
:1030700000037A681A6040F20423C2F200033A683F
:103080001A6007F10C07BD4680BC704780B483B05E
:1030900000AF0346FB7140F20023C2F20003FA794D
:1030A0001A7007F10C07BD4680BC704780B500AFB1
:1030B00040F2FC13C2F200031B68002B21DD00F07C
:1030C000DDF9024640F2FC13C2F200031B689A428B
:1030D00017D9FFF725FF0346002B06D04FF001005C
:1030E0004FF00101FFF7D6FE0BE04FF001004FF06B
:1030F0000001FFF7CFFE4FF002004FF00101FFF794
:10310000C9FE4FF00103184680BD00BF80B500AF77
:103110004FF00400FFF7D4FE0346002B0CBF002342
:103120000123DBB2184680BD80B582B000AF0246F5
:103130000B46FA71BB71FB79002B11D04FF00400E4
:103140004FF00101FFF7A6FEBB79C82B14BF002387
:103150000123DBB24FF020001946FFF79BFE05E08C
:103160004FF004004FF00001FFF794FE4FF0040011
:10317000FFF7BAFE07F10807BD4680BD80B483B0F3
:1031800000AF4FF47843C0F605033B6040F21823CC
:10319000C2F200034FF000021A604FF000037B60A0
:1031A0002FE07A684FF4FC43C0F20123D3184FEAB2
:1031B00083033B603B681B68B3F1FF3F12D07B6821
:1031C00003F101023B68196840F21823C2F20003C0
:1031D00043F8221040F27523C2F200034FF00102BF
:1031E0001A700AE07B6803F1010240F21823C2F270
:1031F00000034FF0000143F822107B6803F1010344
:103200007B607B68132BCCDD4FF00003184607F181
:103210000C07BD4680BC704780B485B000AF034644
:10322000FB714FF00003FB7319E0FA7B40F6185373
:10323000C2F200034FEA82129B189B78FA799A42F5
:1032400009D1FA7B40F61853C2F200034FEA82120A
:103250009B185B7808E0FB7B03F10103FB73FB7BAE
:10326000092BE2D94FF00003184607F11407BD46B9
:1032700080BC704780B584B000AF4FF00003BB73D3
:103280004FF00003FB7312E0FB7B03F1010240F2FD
:103290001823C2F2000353F82230002B03D04FF062
:1032A0000103BB7306E0FB7B03F10103FB73FB7BB4
:1032B000132BE9D94FF000037B734FF00003FB732E
:1032C00019E0FA7B40F69C43C2F2000353F8323017
:1032D0001A46F97B40F6EC43C2F2000353F8213062
:1032E000D318002B03D04FF001037B7306E0FB7B68
:1032F00003F10103FB73FB7B092BE2D940F2762338
:10330000C2F200031B78002B05D07B7B002B02D080
:103310004FF0010301E04FF00003DAB240F27623F0
:10332000C2F200031A7040F27523C2F200031B7848
:10333000002B0CD1BB7B002B09D140F27623C2F2CB
:1033400000031B78002B02D14FF0FF0380E04FF405
:103350007843C0F605037B6006F008FA4FF03500AD
:1033600006F0DEFA4FF47840C0F6050006F028FAC1
:103370000346FB7040F27523C2F200031B78002B5A
:1033800002D1BB7B002B22D04FF00003FB731BE06C
:10339000FA7B4FF4FC43C0F20123D3184FEA8303B6
:1033A0007B60FB7B03F1010240F21823C2F20003B1
:1033B00053F822307868194606F04EFA0346FB703F
:1033C000FB7B03F10103FB73FB7B132BE0D940F282
:1033D0007623C2F200031B78002B35D04FF0000398
:1033E000FB732EE0FA7B47F61463C0F20123D31877
:1033F0004FEA83037B60FA7B40F69C43C2F20003F2
:1034000053F83230BB60FB7B1846FFF705FF0346DD
:10341000022B03D1BB68C3F10003BB60FA7B40F60B
:10342000EC43C2F2000353F82220BB68D31878683B
:10343000194606F011FA0346FB70FB7B03F101030A
:10344000FB73FB7B092BCDD906F0A8F94FF00003E5
:10345000184607F11007BD4680BD00BF80B483B099
:1034600000AF40F28823C2F200031B687B607B68D8
:10347000184607F10C07BD4680BC704780B483B086
:1034800000AF40F28823C2F200031B687B6040F269
:103490000823C2F200031B687A68D21A44F6D35399
:1034A000C1F26203A3FB02134FEA9313184607F11C
:1034B0000C07BD4680BC704780B483B000AF786015
:1034C0007B68002B1FDD7B6803F00703002B03D113
:1034D0007B6803F101037B607A6840F28023C2F2CB
:1034E00000031A6040F28423C2F200034FF001028D
:1034F0001A7000BF40F28423C2F200031B78DBB2D3
:10350000002BF7D100E000BF07F10C07BD4680BCDF
:10351000704700BF80B582B000AF40F28823C2F28E
:1035200000031B6803F1010240F28823C2F200038A
:103530001A6040F28423C2F200031B78DBB2002B36
:1035400019D040F28023C2F200031B6803F1FF325E
:1035500040F28023C2F200031A6040F28023C2F2DC
:1035600000031B68002B06D140F28423C2F2000343
:103570004FF000021A7004F059F878607B68002B55
:1035800004DB7B68DBB2184604F0CCF804F068FA80
:1035900004F026FE40F2A823C2F200035B78DBB2FF
:1035A000002B0BD040F28C23C2F200035B6803F1C6
:1035B000010240F28C23C2F200035A6040F2A823B9
:1035C000C2F200039B78DBB2002B0BD040F28C23BD
:1035D000C2F200039B6803F1010240F28C23C2F2A5
:1035E00000039A6040F2A823C2F20003DB78DBB24A
:1035F000002B0BD040F28C23C2F20003DB6803F1F6
:10360000010240F28C23C2F20003DA6040F2A823E8
:10361000C2F200031B79DBB2002B0BD040F28C23EB
:10362000C2F200031B6903F1010240F28C23C2F2D3
:1036300000031A6140F2A823C2F200035B79DBB2F7
:10364000002B0BD040F28C23C2F200035B6903F124
:10365000010240F28C23C2F200035A6140F2A82317
:10366000C2F200039B79DBB2002B0BD040F28C231B
:10367000C2F200039B6903F1010240F28C23C2F203
:1036800000039A6140F2B023C2F200031B68002BD2
:1036900022D040F2B423C2F200031B6803F1FF32D0
:1036A00040F2B423C2F200031A6040F2B423C2F223
:1036B00000031B68002B0FD140F2B023C2F20003BD
:1036C0001B68984740F2B823C2F200031A6840F220
:1036D000B423C2F200031A6040F2BC23C2F200031A
:1036E0001B68002B22D040F2C023C2F200031B68EB
:1036F00003F1FF3240F2C023C2F200031A6040F22D
:10370000C023C2F200031B68002B0FD140F2BC2380
:10371000C2F200031B68984740F2C423C2F20003C0
:103720001A6840F2C023C2F200031A6040F2C823B4
:10373000C2F200031B68002B22D040F2CC23C2F25D
:1037400000031B6803F1FF3240F2CC23C2F20003F6
:103750001A6040F2CC23C2F200031B68002B0FD189
:1037600040F2C823C2F200031B68984740F2D023FE
:10377000C2F200031A6840F2CC23C2F200031A60BE
:1037800040F2D423C2F200031B68002B22D040F287
:10379000D823C2F200031B6803F1FF3240F2D823A2
:1037A000C2F200031A6040F2D823C2F200031B6881
:1037B000002B0FD140F2D423C2F200031B689847BC
:1037C00040F2DC23C2F200031A6840F2D823C2F2AE
:1037D00000031A6040F2E023C2F200031B68002BD2
:1037E00022D040F2E423C2F200031B6803F1FF324F
:1037F00040F2E423C2F200031A6040F2E423C2F272
:1038000000031B68002B0FD140F2E023C2F200033B
:103810001B68984740F2E823C2F200031A6840F29E
:10382000E423C2F200031A6040F2FC13C2F2000368
:103830001B68002B00F08F8040F20823C2F20003C7
:103840001B68002B00F0878040F2FC13C2F20003DB
:103850001B68002B2DDD40F22033C2F200031B68F1
:10386000DB7803F00803002B23D040F22033C2F2B0
:1038700000031B68DB7823F07F03DBB24FF002000C
:103880001946FFF707FB40F22033C2F200031B6822
:10389000DB7803F04003002B0CBF00230123DBB2D5
:1038A0004FF001001946FFF7F5FA4FF00A00FFF755
:1038B0001BFBFFF755FB0346FB7040F21423C2F2DB
:1038C00000031B78FA789A4214D040F21423C2F213
:1038D00000031B78FF2B06D140F21423C2F2000331
:1038E000FA781A7006E0FB78002B03D14FF0010044
:1038F000FFF7FAFAFB78002B2DD0FFF7D7FB034632
:10390000002B28D0FFF70CFB03461A4640F2102389
:10391000C2F200031B689A421DD040F21023C2F28B
:1039200000031B68FF2B09D1FFF7FAFA03461A467A
:1039300040F21023C2F200031A600CE0FFF7F0FA25
:1039400003461A4640F21023C2F200031A604FF0F9
:103950000200FFF7C9FA40F27423C2F200031B7899
:10396000012B1FD140F21433C2F200031A6840F257
:10397000F3139A420ADD40F21433C2F200034FF00F
:1039800000021A604FF00B0002F026F940F21433E7
:10399000C2F200031B6803F1010240F21433C2F2C9
:1039A00000031A6040F21833C2F200031B68032BB5
:1039B00008DD40F21833C2F200034FF000021A6033
:1039C00005F00AF840F21833C2F200031B6803F155
:1039D000010240F21833C2F200031A6040F20C03F5
:1039E000C2F200031B68032B40F3858040F20C03F6
:1039F000C2F200034FF000021A6040F2EC23C2F260
:103A000000031B68002B22D040F2F023C2F2000317
:103A10001B6803F1FF3240F2F023C2F200031A6088
:103A200040F2F023C2F200031B68002B0FD140F2DA
:103A3000EC23C2F200031B68984740F2F423C2F261
:103A400000031A6840F2F023C2F200031A6040F249
:103A5000F823C2F200031B68002B22D040F2FC23A3
:103A6000C2F200031B6803F1FF3240F2FC23C2F2F2
:103A700000031A6040F2FC23C2F200031B68002B13
:103A80000FD140F2F823C2F200031B68984740F2BE
:103A90000033C2F200031A6840F2FC23C2F20003B2
:103AA0001A6040F20433C2F200031B68002B22D0DC
:103AB00040F20833C2F200031B6803F1FF3240F208
:103AC0000833C2F200031A6040F20833C2F2000366
:103AD0001B68002B0FD140F20433C2F200031B68B5
:103AE000984740F20C33C2F200031A6840F20833E0
:103AF000C2F200031A6040F20C03C2F200031B681A
:103B000003F1010240F20C03C2F200031A6007F154
:103B10000807BD4680BD00BF80B500AF4FF08040B4
:103B20004FF0080107F058FA0346002B00F0B98067
:103B30004FF0804007F042FA03461A4640F27823DD
:103B4000C2F200031A804FF080434FF000029A84C3
:103B500040F21133C2F200031B78002B06D140F271
:103B60007A23C2F200034FF001021A8040F21133AF
:103B7000C2F200031B78002B76D040F27823C2F209
:103B800000031A8842F227339A426DD840F2782314
:103B9000C2F200031B88B3F5915F1CD940F27A236F
:103BA000C2F200031A88114640F27823C2F20003E1
:103BB0001B88A3F5915398B240F20073C2F2000340
:103BC00023F8110002F101039AB240F27A23C2F203
:103BD00000031A8026E040F27823C2F200031A881C
:103BE00040F2CF739A4207D840F21133C2F2000379
:103BF0004FF000021A7015E040F27A23C2F200037F
:103C00001A88114640F20073C2F200034FF001001F
:103C100023F8110002F101039AB240F27A23C2F2B2
:103C200000031A8040F27A23C2F200031B88062B9D
:103C30000CD140F27F23C2F200031B7843F004034F
:103C4000DAB240F27F23C2F200031A7040F27A2304
:103C5000C2F200031B88062B06D940F21133C2F2D0
:103C600000034FF000021A7040F27823C2F2000302
:103C70001A8842F210739A420DD940F21133C2F2FF
:103C800000031B78002B06D140F21133C2F200036F
:103C90004FF001021A704FF080404FF0080107F01A
:103CA000CDF980BD80B500AF4FF48060C4F2000054
:103CB0004FF0080107F090F90346002B00F0BF8099
:103CC0004FF48060C4F2000007F078F903461A460A
:103CD00040F27823C2F200031A804FF48063C4F2EA
:103CE00000034FF000029A8440F21033C2F2000346
:103CF0001B78002B06D140F27C23C2F200034FF068
:103D000001021A8040F21033C2F200031B78002B2C
:103D100076D040F27823C2F200031A8842F22733A9
:103D20009A426DD840F27823C2F200031B88B3F5A3
:103D3000915F1CD940F27C23C2F200031A8811461D
:103D400040F27823C2F200031B88A3F5915398B286
:103D500040F22873C2F2000323F8110002F10103BC
:103D60009AB240F27C23C2F200031A8026E040F2AD
:103D70007823C2F200031A8840F2CF739A4207D820
:103D800040F21033C2F200034FF000021A7015E047
:103D900040F27C23C2F200031A88114640F22873D5
:103DA000C2F200034FF0010023F8110002F10103F9
:103DB0009AB240F27C23C2F200031A8040F27C23C4
:103DC000C2F200031B88062B0CD140F27F23C2F203
:103DD00000031B7843F00803DAB240F27F23C2F2FB
:103DE00000031A7040F27C23C2F200031B88062BEA
:103DF00006D940F21033C2F200034FF000021A70ED
:103E000040F27823C2F200031A8842F210739A42F9
:103E10000DD940F21033C2F200031B78002B06D1FB
:103E200040F21033C2F200034FF001021A704FF457
:103E30008060C4F200004FF0080107F0FFF880BD79
:103E400080B582B000AF786040F23853C2F2000310
:103E50001B78002B08D17B68DBB24FF46050C4F2B2
:103E60000100194607F022FA40F23853C2F200036B
:103E70001B78012B08D17B68DBB24FF48840C4F279
:103E80000000194607F012FA40F23853C2F200035C
:103E90001B78022B08D17B68DBB24FF49040C4F250
:103EA0000000194607F002FA40F23853C2F200034C
:103EB0001B78002B0CD100BF4FF46050C4F20100FE
:103EC0004FF0800107F018FA0346002BF4D026E0EB
:103ED00040F23853C2F200031B78012B0CD100BF13
:103EE0004FF48840C4F200004FF0800107F004FA5C
:103EF0000346002BF4D012E040F23853C2F2000324
:103F00001B78022B0BD100BF4FF49040C4F200008D
:103F10004FF0800107F0F0F90346002BF4D07B68E6
:103F2000184607F10807BD4680BD00BF80B582B0C6
:103F300000AF00F06BFB40F2DC72C2F2000240F214
:103F40001C33C2F200031A6040F61C02C2F20002E7
:103F500040F22033C2F200031A6040F21C33C2F276
:103F600000031B6818464FF000014FF02002FCF7D9
:103F7000CBF940F21C33C2F200031B684CF6171257
:103F80001A8040F21C33C2F200031B684FF0020299
:103F90009A7040F21C33C2F200031B684FF001021A
:103FA0009A7740F21C33C2F200031B684FF0000204
:103FB000DA7040F20023C2F200031B78002B0ED00F
:103FC00040F21C33C2F200031A6840F21C33C2F202
:103FD00000031B68DB7843F00103DBB2D37002F00F
:103FE000AFFB4FF000037B6023E040F22033C2F2CE
:103FF00000031A687B68D3184FF07F029A7140F271
:104000002033C2F200031A687B68D31803F110034F
:104010004FF07F029A7040F21C33C2F200031A681C
:104020007B68D3184FF07F029A717B6803F101031C
:104030007B607B68072BD8DD40F22033C2F200039F
:104040001B684FF000025A7340F22033C2F20003A3
:104050001B684FF000029A7340F22033C2F2000353
:104060001B684FF000025A7640F22033C2F2000380
:104070001B684FF000029A764FF000037B6015E05A
:1040800040F25C73C2F200037A684FF07F0123F8BC
:10409000121040F29C73C2F200037A684FF07F0165
:1040A00023F812107B6803F101037B607B681F2BF0
:1040B000E6DD07F10807BD4680BD00BF80B582B0D0
:1040C00000AF4FF00003BB7140F27F23C2F2000348
:1040D0001B7803F00403002B03D04FF0010000F025
:1040E000A7FB40F27F23C2F200031B7803F0080312
:1040F000002B03D04FF0020000F09AFB4FF4406019
:10410000C4F201004FF4806105F070FD0346002BFE
:104110000CD140F23953C2F200031B7843F0010383
:10412000DAB240F23953C2F200031A704FF48050F1
:10413000C4F201004FF4807105F058FD0346002BD6
:104140000CD140F23953C2F200031B7843F0020352
:10415000DAB240F23953C2F200031A7040F27E2301
:10416000C2F200034FF000021A70BB79002B0AD193
:1041700040F27423C2F200031B78012B03D14FF0ED
:104180000C0001F029FDBB7903F1010146F26763E0
:10419000C6F2666383FB01234FEAA3024FEAE17391
:1041A000D21A13464FEA83039B184FEA4303CA1AF5
:1041B0001346BB7140F22533C2F200031B78002B7B
:1041C0000DD040F22533C2F200031B7803F1FF3318
:1041D000DAB240F22533C2F200031A7019E040F25D
:1041E0007F23C2F200031B7823F00103DAB240F20E
:1041F0007F23C2F200031A7040F23953C2F2000367
:104200001B7823F00103DAB240F23953C2F2000303
:104210001A7040F22633C2F200031B78002B0DD037
:1042200040F22633C2F200031B7803F1FF33DAB207
:1042300040F22633C2F200031A7019E040F27F23E5
:10424000C2F200031B7823F00203DAB240F27F23AC
:10425000C2F200031A7040F23953C2F200031B7815
:1042600023F00203DAB240F23953C2F200031A70AB
:1042700000F01EF940F22033C2F200031B681A88D6
:104280004CF617139A4240F00E8140F22033C2F2EE
:1042900000031B689B7803F00203002B02D000F0A0
:1042A00025FA00E140F22033C2F200031B689B783C
:1042B00003F00403002B10D040F21C33C2F20003C1
:1042C0001B684FF008029A7040F22033C2F20003DC
:1042D0001B684FF00102DA77E5E040F22033C2F2CA
:1042E00000031B689B78082B40F0DD8040F21C33F4
:1042F000C2F200031B684FF008029A7040F22033AC
:10430000C2F200031B68DB7803F00803002B0CBF2C
:10431000002301237B7140F2FC13C2F200031B68EF
:10432000B3F1FF3F2DD17B79002B2AD140F2F91355
:10433000C2F200031B78012B23D14DF65050C0F67A
:10434000000007F099FE40F21403C2F200034FF0A0
:10435000FF021A7040F21503C2F200034FF0FF0291
:104360001A704FF002004FF00001FEF793FD4FF07E
:1043700001004FF00001FEF78DFD4FF00800FEF741
:10438000B3FD40F22033C2F200031B68DB7803F078
:104390000803002B0CBF00230123DAB240F2F9130B
:1043A000C2F200031A7040F2FC13C2F200031B6851
:1043B000B3F1FF3F50D140F22033C2F200031B683B
:1043C000DB7803F00803002B46D040F22033C2F222
:1043D00000031B68DB7803F04003002B0CBF0023B5
:1043E00001233B7140F21403C2F200031B783A79B7
:1043F0009A420BD03B794FF001001946FEF74AFD77
:1044000040F21403C2F200033A791A7040F22033EA
:10441000C2F200031B68DB78DBB26FEA0303DBB296
:104420004FEAD313FB7040F21503C2F200031B786E
:10443000FA789A4210D0FB78002B14BF0023012396
:10444000DBB24FF002001946FEF724FD40F21503DF
:10445000C2F20003FA781A704FF00003FB711FE0FC
:10446000FA7940F22033C2F200031968FB79CB18C5
:10447000997940F25073C2F200039954FA7940F2EC
:104480002033C2F200031968FB79CB18997C40F6FF
:104490005C03C2F200039954FB7903F10103FB7141
:1044A000FB790B2BDCD907F10807BD4680BD00BFA7
:1044B00080B584B000AF4FF40060C4F201004FF447
:1044C000006105F0D3FB4FF000037B604FF0000369
:1044D000BB607EE04FF4C050C4F201004FF0010118
:1044E00005F0D2FB00BF4FF44050C4F201004FF082
:1044F000020106F00FFC0346002BF4D040F2DC73FF
:10450000C2F20003BA6833F812304FF44050C4F2DC
:104510000100194606F0E2FB00BF4FF44050C4F220
:1045200001004FF0010106F0F5FB0346002BF4D02B
:104530004FF44050C4F2010006F0DEFB034619467A
:1045400040F61C03C2F20003BA6823F8121000BF41
:104550004FF44050C4F201004FF0020106F0DAFBC4
:104560000346002BF4D04FF4C050C4F201004FF0CA
:10457000010105F07BFB4FF00003FB6003E0FB68EB
:1045800003F10103FB60FB68952BF8DD7B6803F109
:1045900001037B607B68042B17D14FF00003FB60A5
:1045A00003E0FB6803F10103FB60FA6840F2E733C4
:1045B0009A42F6DD4FF40060C4F201004FF400614E
:1045C00005F062FB4FF000037B60BB6803F1010361
:1045D000BB60BB680F2B7FF77DAF40F21C33C2F28C
:1045E00000031A6840F23A53C2F200031B781946DE
:1045F000D17703F10103DAB240F23A53C2F2000379
:104600001A7007F11007BD4680BD00BF80B584B0A9
:1046100000AF4FF00103BB604FF000037B604FF42D
:10462000C050C4F201004FF0010105F01FFB4FF034
:104630000003FB600BE04FF44050C4F2010006F0B1
:104640005BFB03463B60FB6803F10103FB60FB6817
:10465000072BF0DD4FF00003FB600CE040F2DC7351
:10466000C2F20003FA684FF07F0123F81210FB68D2
:1046700003F10103FB60FB680F2BEFDD2FE04FF030
:10468000C800FEF719FF4FF4C050C4F201004FF00C
:10469000080105F0ABFA0346002B0DD14FF4C050D2
:1046A000C4F201004FF0100105F0A0FA0346002B00
:1046B00002D14FF00003BB607B6803F101037B6014
:1046C0007B68322B0BDD4FF000037B60BB68002B57
:1046D00005D04DF69C50C0F6000007F0CDFCBB683D
:1046E000002BCCD107F11007BD4680BD80B483B04C
:1046F00000AF40F22033C2F200031B689B7803F046
:104700000103DBB2002B25D040F21C33C2F20003C0
:104710001B684FF003029A7040F21C33C2F2000390
:104720001B684FF000025A714FF00003FB710DE05F
:1047300040F21C33C2F200031A68FB79D3184FF021
:104740007F029A71FB7903F10103FB71FB79072B5F
:10475000EED967E040F21C33C2F200031B684FF051
:1047600002029A7040F21C33C2F200031B684FF041
:1047700055025A7140F21C33C2F200031A6840F22B
:104780000403C2F200031B78937140F21C33C2F29F
:1047900000031A6840F20403C2F200035B78D3718D
:1047A00040F21C33C2F200031A6840F20403C2F262
:1047B00000039B78137240F21C33C2F200031A68A4
:1047C00040F20403C2F20003DB78537240F21C3360
:1047D000C2F200031A6840F20403C2F200031B791C
:1047E000937240F21C33C2F200031A6840F20403D1
:1047F000C2F200035B79D37240F21C33C2F20003B1
:104800001A6840F20403C2F200039B79137340F26A
:104810001C33C2F200031A6840F20403C2F2000320
:10482000DB79537307F10C07BD4680BC704700BFAE
:1048300090B587B000AF0346FB71FB79012B2BD1FC
:1048400040F20073C2F200033B6140F25C73C2F2BB
:104850000003FB6040F27F23C2F200031B7823F0C9
:104860000403DAB240F27F23C2F200031A7040F26E
:104870007F23C2F200031B7843F00103DAB240F257
:104880007F23C2F200031A7040F22533C2F2000304
:104890004FF005021A702AE040F22873C2F20003BA
:1048A0003B6140F29C73C2F20003FB6040F27F2345
:1048B000C2F200031B7823F00803DAB240F27F2330
:1048C000C2F200031A7040F27F23C2F200031B7889
:1048D00043F00203DAB240F27F23C2F200031A70FF
:1048E00040F22633C2F200034FF005021A704FF077
:1048F0000103BB7540F22733C2F200031B7803F0BB
:104900000803002B02D04FF00003BB75BB7DFB7585
:1049100052E0FB7D4FEA4303FA68D318FA7D4FEA71
:10492000420239698A1812881A80FB7D4FEA4303D4
:104930003A69D3181B881846FCF758FD03461846F9
:104940002149FCF75FFE0346BB60FB7D4FEA430352
:10495000FA68D418B868FCF717FF03469BB22380A7
:10496000FB7D4FEA4303FA68D3181B88FF2B07D956
:10497000FB7D4FEA4303FA68D3184FF0FF021A8019
:10498000FB7D4FEA4303FA68D3181B887A2B0FD9B3
:10499000FB7D4FEA4303FA68D3181B88832B07D8A3
:1049A000FB7D4FEA4303FA68D3184FF07F021A8069
:1049B000FB7D03F10103FB75FB7D062BA9D907F1F4
:1049C0001C07BD4690BD00BF0000604180B483B0AD
:1049D00000AF4FF46053C4F201031B889BB23B60ED
:1049E0003B6803F02003002B2FD04FF46053C4F238
:1049F00001034FF46052C4F20102128892B222F015
:104A0000200292B21A8040F22833C2F200037B6087
:104A10007B681A687B685B68D31A23F0FF03002B5E
:104A200013D17B681B6803F0FF014FF46053C4F29D
:104A300001039B889BB2DAB27B685B181A727B68B1
:104A40001B6803F101027B681A603B6803F0800376
:104A5000002B4ED04FF46053C4F201034FF4605268
:104A6000C4F20102128892B222F0800292B21A803D
:104A700040F23043C2F200037B607B681A687B68B7
:104A80005B689A4220D04FF46053C4F201037A6805
:104A9000526802F0FF0279688A18127A52B292B212
:104AA0004FEAC2524FEAD25292B29A807B685B6858
:104AB00003F101027B685A6040F21003C2F2000366
:104AC0004FF000021A6014E040F21003C2F200033B
:104AD0004FF001021A604FF46053C4F201034FF427
:104AE0006052C4F20102928992B222F0800292B224
:104AF0009A8107F10C07BD4680BC704780B582B033
:104B000000AF05F0B3FC4FF4803005F0FFFC05F07A
:104B100041FD0346FB71FB79012B33D14FF01000AF
:104B200004F000FE4FF0020004F0D8FD4FF000004A
:104B300005F0CAFD4FF0000005F00AFE4FF480605A
:104B400005F0E4FD4FF4804005F026FE4FF4803080
:104B50004FF4E01105F050FD4FF0010005F072FD3B
:104B600000BF4FF0390006F005F80346002BF8D0DF
:104B70004FF0020005F076FD00BF05F095FD0346FD
:104B8000082BFAD14FF001004FF0010105F00CFFA6
:104B90004FF00700C0F226004FF0010105F060FF62
:104BA00045F6FD20C0F220004FF0010105F02AFF7C
:104BB00007F10807BD4680BD80B582B000AF4FF059
:104BC00000604FF0000105F02DFC4FF01B033B711E
:104BD0004FF003037B714FF00303BB714FF00103F0
:104BE000FB7107F10403184605F06AFB4FF01C0344
:104BF0003B714FF000037B714FF00003BB714FF02E
:104C00000103FB7107F10403184605F059FB4FF04F
:104C10001D033B714FF001037B714FF00103BB712A
:104C20004FF00103FB7107F10403184605F048FB40
:104C30004FF01E033B714FF002037B714FF00203F4
:104C4000BB714FF00103FB7107F10403184605F037
:104C500037FB4FF025033B714FF003037B714FF09F
:104C60000303BB714FF00103FB7107F10403184606
:104C700005F026FB4FF026033B714FF003037B71D9
:104C80004FF00303BB714FF00103FB7107F1040305
:104C9000184605F015FB4FF027033B714FF0030357
:104CA0007B714FF00303BB714FF00103FB7107F100
:104CB0000403184605F004FB4FF4C06005F0ECFA5D
:104CC0004FF017033B714FF000037B714FF000036F
:104CD000BB714FF00103FB7107F10403184605F0A7
:104CE000EFFA4FF01F033B714FF000037B714FF061
:104CF0000003BB714FF00103FB7107F10403184679
:104D000005F0DEFA4FF020033B714FF000037B719A
:104D10004FF00003BB714FF00103FB7107F1040377
:104D2000184605F0CDFA07F10807BD4680BD00BF63
:104D300080B588B000AF4FF6FF733B834FF00003A0
:104D4000FB7607F118034FF40060C4F20100194626
:104D500004F06CFE07F118034FF44060C4F2010048
:104D6000194604F063FE07F118034FF48050C4F2B3
:104D70000100194604F05AFE07F118034FF4A05041
:104D8000C4F20100194604F051FE07F118034FF474
:104D9000C050C4F20100194604F048FE07F11803A0
:104DA0004FF4E050C4F20100194604F03FFE4FF00A
:104DB0003F033B834FF00303BB764FF01003FB76BA
:104DC00007F118034FF4E050C4F20100194604F053
:104DD0002DFE40F61A60C0F21E004FF0010104F0F3
:104DE00079FF4FF400733B834FF00303BB764FF022
:104DF0001803FB7607F118034FF40060C4F20100BA
:104E0000194604F013FE4FF480633B834FF0040314
:104E1000FB7607F118034FF40060C4F20100194655
:104E200004F004FE4FF020033B834FF00303BB76F6
:104E30004FF01803FB7607F118034FF4A050C4F2AB
:104E40000100194604F0F2FD4FF040033B834FF0A0
:104E50000403FB7607F118034FF4A050C4F20100DD
:104E6000194604F0E3FD4FF480633B834FF00303E6
:104E7000BB764FF01803FB7607F118034FF4805010
:104E8000C4F20100194604F0D1FD4FF400633B83E6
:104E90004FF00403FB7607F118034FF48050C4F27F
:104EA0000100194604F0C2FD4FF00F033B834FF0A1
:104EB0000003FB7607F118034FF40060C4F2010011
:104EC000194604F0B3FD4FF00F033B834FF000038E
:104ED000FB7607F118034FF48050C4F20100194625
:104EE00004F0A4FD4FF0E0033B834FF00303BB76D7
:104EF0004FF01803FB7607F118034FF40060C4F27B
:104F00000100194604F092FD4FF400633B834FF01B
:104F10000303BB764FF01003FB7607F118034FF441
:104F20000060C4F20100194604F080FD4FF4806374
:104F30003B834FF04803FB7607F118034FF44060C2
:104F4000C4F20100194604F071FD4FF480733B83F5
:104F50004FF04803FB7607F118034FF48050C4F27A
:104F60000100194604F062FD4FF44060C4F20100F4
:104F70004FF4807104F07AFE4FF480733B834FF05E
:104F80000303BB764FF01003FB7607F118034FF4D1
:104F90004060C4F20100194604F048FD4FF00003E0
:104FA000FB771BE04FF44060C4F201004FF48071C6
:104FB00004F06AFE4FF00000FEF77EFA4FF4406006
:104FC000C4F201004FF4807104F050FE4FF0000075
:104FD000FEF772FAFB7F03F10103FB77FB7F272BC0
:104FE000E0D94FF440733B834FF00303BB764FF09F
:104FF0001C03FB7607F118034FF44060C4F2010074
:10500000194604F013FD4FF460433B834FF028032F
:10501000FB7607F118034FF48050C4F201001946E3
:1050200004F004FD01F08CFB40F29B133B834FF036
:105030000303BB764FF01003FB7607F118034FF420
:10504000A050C4F20100194604F0F0FC4FF4A05344
:10505000C4F201034FF00102C9F699125A604FF0F1
:1050600018033B834FF04803FB7607F118034FF416
:10507000C050C4F20100194604F0D8FC4FF061039F
:105080003B834FF00303BB764FF01003FB7607F131
:1050900018034FF4C050C4F20100194604F0C6FCD6
:1050A0004FF00003BB804FF48273FB804FF400632A
:1050B0003B814FF000037B814FF00103BB814FF434
:1050C0000073FB814FF020033B824FF000037B8293
:1050D0004FF00703BB8207F104034FF44050C4F2C2
:1050E0000100194605F08EFD4FF44050C4F2010056
:1050F0004FF0010105F0D2FD07F12007BD4680BD4C
:1051000080B58CB000AF42F24C43C4F201037B6027
:1051100040F23C53C2F20003BB604FF00003FB605F
:105120004FF008033B614FF000037B614FF08003B9
:10513000BB614FF48073FB614FF480633B624FF0BF
:1051400020037B624FF40053BB624FF00003FB620D
:1051500007F104034FF00800C4F20200194604F0FE
:105160001FFA4FF00800C4F202004FF0010104F0F2
:1051700059FA07F13007BD4680BD00BF80B586B043
:1051800000AF4FF000037B604FF001033B724FF024
:1051900001037B724FF46023FB604FF000033B611F
:1051A0004FF008033B7507F104034FF41050C4F2AD
:1051B0000100194603F0DEFE4FF41050C4F2010066
:1051C0004FF000014FF001024FF0050303F0E0FF44
:1051D0004FF41050C4F201004FF001014FF00202F1
:1051E0004FF0050303F0D4FF4FF41050C4F2010058
:1051F0004FF002014FF003024FF0050303F0C8FF28
:105200004FF41050C4F201004FF003014FF00402BC
:105210004FF0050303F0BCFF4FF41050C4F201003F
:105220004FF00C014FF005024FF0050303F0B0FF03
:105230004FF41050C4F201004FF00D014FF0060280
:105240004FF0050303F0A4FF4FF41050C4F2010027
:105250004FF00A014FF007024FF0050303F098FFEB
:105260004FF41050C4F201004FF00B014FF0080250
:105270004FF0050303F08CFF4FF41050C4F201000F
:105280004FF0010103F0F4FE4FF41050C4F201009E
:105290004FF0010103F0D0FE4FF41050C4F20100B2
:1052A00003F002FF00BF4FF41050C4F2010003F0FE
:1052B0000BFF0346002BF6D14FF41050C4F201004F
:1052C00003F01EFF00BF4FF41050C4F2010003F0C2
:1052D00027FF0346002BF6D14FF41050C4F2010013
:1052E0004FF0010103F038FF07F11807BD4680BDFC
:1052F00080B500AF00F0A4FD80BD00BF80B584B0D4
:1053000000AF48F2E123C0F203033B604FF000031B
:10531000BB804FF00003FB804FF000033B814FF058
:105320000003BB814FF00C037B813B464FF4605080
:10533000C4F20100194605F093FE4FF46050C4F228
:1053400001004FF0010105F03BFF3B464FF4884060
:10535000C4F20000194605F083FE4FF48840C4F201
:1053600000004FF0010105F02BFF3B464FF4904049
:10537000C4F20000194605F073FE4FF49040C4F2E9
:1053800000004FF0010105F01BFF3B464FF4605059
:10539000C4F20100194605F063FE4FF46050C4F2F8
:1053A000010040F227714FF0010205F029FF4FF490
:1053B0006050C4F2010040F225514FF0010205F0A7
:1053C0001FFF4FF46050C4F201004FF0010105F0DF
:1053D000F7FE3B464FF48840C4F20000194605F042
:1053E0003FFE4FF48840C4F2000040F227714FF0B6
:1053F000010205F005FF4FF48840C4F2000040F2BE
:1054000025514FF0010205F0FBFE4FF48840C4F235
:1054100000004FF0010105F0D3FE3B464FF49040F1
:10542000C4F20000194605F01BFE4FF49040C4F290
:10543000000040F227714FF0010205F0E1FE4FF449
:105440009040C4F2000040F225514FF0010205F0F7
:10545000D7FE4FF49040C4F200004FF0010105F078
:10546000AFFE07F11007BD4680BD00BF80B500AF9D
:1054700042F2283005F06EFC4FF0010005F0ACFC64
:105480004FF0010005F076FC80BD00BF80B584B010
:1054900000AF4FF00003C4F201034FF00002C4F26A
:1054A0000102526842F480525A604FF6FF733B810A
:1054B0004FF00403BB804FF000037B814FF00003EB
:1054C000FB8007F104034FF40060C4F200001946AA
:1054D00005F0A8FC4FF40063C4F2000346F668022E
:1054E0001A834FF40063C4F2000346F668029A83FD
:1054F0004FF40063C4F200034FF06E029A854FF43C
:105500000063C4F200034FF420721A854FF4006365
:10551000C4F2000343F233321A844FF40063C4F23E
:1055200000034FF081021A804FF40060C4F20000C3
:105530004FF0080105F024FD4FF40060C4F20000B4
:105540004FF0010105F0FAFC4FF40060C4F20000D6
:105550004FF0010105F0AAFC07F11007BD4680BD20
:1055600080B584B000AF4FF44063C4F201034FF440
:105570004062C4F20102526822F470625A604FF431
:105580004063C4F201034FF44062C4F20102526866
:1055900042F480625A604FF48053C4F201034FF426
:1055A0008052C4F20102526822F00F025A604FF496
:1055B0008053C4F201034FF48052C4F201025268D6
:1055C00042F004025A604FF6FF733B814FF0040330
:1055D000BB804FF000037B814FF00003FB8007F19D
:1055E00004034FF08040194605F01CFC07F104034A
:1055F0004FF48060C4F20000194605F013FC4FF030
:1056000080434FF000021A844FF080434FF6FF7240
:105610009A854FF080434FF010021A854FF0804377
:105620004FF001029A834FF080434FF08042928BFB
:1056300092B242F0300292B29A834FF080434FF020
:1056400001029A824FF080434FF08042928992B2D9
:1056500042F0080292B29A814FF080434FF4807278
:105660001A844FF080404FF0010105F01FFC4FF409
:105670008063C4F200034FF000021A844FF4806389
:10568000C4F200034FF6FF729A854FF48063C4F2B0
:1056900000034FF010021A854FF48063C4F2000338
:1056A0004FF001029A834FF48063C4F200034FF479
:1056B0008062C4F20002928B92B242F0300292B247
:1056C0009A834FF48063C4F200034FF001029A8280
:1056D0004FF48063C4F200034FF48062C4F200020E
:1056E000928992B242F0080292B29A814FF480639A
:1056F000C4F200034FF480721A844FF48060C4F245
:1057000000004FF0010105F0D1FBFFF7BFFE4FF69F
:10571000FF733B814FF01403BB804FF000037B818C
:105720004FF00003FB8007F104034FF43050C4F244
:105730000100194605F076FB4FF43050C4F2010029
:105740004FF0010105F0B2FB4FF43050C4F20100FC
:105750004FF002014FF0010205F0CAFB4FF4305345
:10576000C4F201034FF43052C4F20102128992B222
:1057700022F0070292B21A814FF010004FF001019F
:1057800005F06EF94FF6FF733B814FF04803BB8085
:105790004FF000037B814FF00003FB8007F104030F
:1057A0004FF48050C4F20000194605F03BFB4FF463
:1057B0008050C4F200004FF0010105F077FB07F1C3
:1057C0001007BD4680BD00BF80B500AFFFF796F95A
:1057D000FFF7AEFAFFF7F0F94FF00800C4F202004D
:1057E00003F0BEFD4FF41050C4F2010003F07CFB47
:1057F000FFF786FCFFF7C2FCFFF77AFDFFF77EFD9F
:10580000FFF734FEFFF7ACFE00F002F880BD00BFEA
:1058100080B586B000AF4FF4A840C4F2000004F099
:10582000D7FA4FF44073BB824FF00303BB754FF0C0
:105830001C03FB7507F114034FF44060C4F2010030
:10584000194604F0F3F84FF00003BB804BF6FF73EA
:10585000FB804FF000033B814FF480637B814FF46A
:105860008043BB8148F2A063C0F201033B6107F1B2
:1058700004034FF4A840C4F20000194604F0DAFA19
:105880004FF4A840C4F200004FF0010104F0AEFB59
:1058900002F008FD07F11807BD4680BD80B483B053
:1058A00000AF0346FB71FB79002B0AD0FB790C2B70
:1058B00007D8FA7940F28003C2F200039B5C012B07
:1058C00002D04FF0000301E04FF00103184607F14A
:1058D0000C07BD4680BC704780B483B000AF034660
:1058E000FB71FB79002B0AD0FB790C2B07D8FA79D6
:1058F00040F28003C2F200039B5C002B02D04FF009
:10590000000301E04FF00103184607F10C07BD4604
:1059100080BC704780B483B000AF0346FB71FB7955
:10592000002B02D0FB79082B02D94FF0000301E0D5
:105930004FF00103184607F10C07BD4680BC7047C5
:1059400080B584B000AF02460B46FA71BB71FB799B
:10595000002B43D0FB790C2B42D8BB79002B1ED1F6
:10596000FB7940F21802C2F200024FEAC303D318D7
:105970009B88BB814FF00303BB734FF01003FB7395
:10598000FA7940F21803C2F2000353F832301A4693
:1059900007F10C031046194604F048F821E0BB79E2
:1059A000012B1ED1FB7940F21802C2F200024FEA2D
:1059B000C303D3189B88BB814FF04803FB73FA796C
:1059C00040F21803C2F2000353F832301A4607F1CE
:1059D0000C031046194604F029F802E000BF00E06D
:1059E00000BF07F11007BD4680BD00BF80B584B081
:1059F00000AFF871B9717A713B7140F28003C2F265
:105A000000034FF000021A7040F28003C2F200035C
:105A1000FA795A7040F28003C2F20003BA799A70A0
:105A200040F28003C2F200037A79DA7040F2800318
:105A3000C2F200033A791A7140F28003C2F2000305
:105A40003A7E5A7140F28003C2F200033A7F9A71A3
:105A500040F28003C2F2000397F82020DA7140F28E
:105A60008003C2F2000397F824201A7240F28003E8
:105A7000C2F2000397F828205A7240F28003C2F263
:105A8000000397F82C209A7240F28003C2F20003C0
:105A900097F83020DA7240F28003C2F2000397F8E0
:105AA00034201A734FF00103FB730EE0FA7B40F2CF
:105AB0008003C2F200039B5CFA7B10461946FFF795
:105AC0003FFFFB7B03F10103FB73FB7B0C2BEDD949
:105AD00007F11007BD4680BD80B582B000AF024619
